S00D00006D71335F322E7372656375
S113000019C033C032C031C030C02FC02EC02DC083
S11300102CC02BC02AC029C028C027C026C025C098
S113002024C023C022C021C020C01FC01EC01DC0C8
S11300301CC01BC011241FBECFEFD2E0DEBFCDBF5A
S113004011E0A0E0B1E0EAE9F7E002C005900D920A
S1130050A030B107D9F721E0A0E0B1E001C01D92C2
S1130060A030B207E1F70BD096C3CACFCF93DF938A
S1130070CDB7DEB758D30000DF91CF910895CF9369
S1130080DF9300D0CDB7DEB7F1DF1A82198285E0A5
S113009077D09A838983FBCFCF93DF93CDB7DEB735
S11300A084E690E024E630E0F90120812E7FFC0113
S11300B020838CE790E0FC0110828AE790E021E83D
S11300C0FC0120838BE790E0FC01108280E0DF914B
S11300D0CF910895CF93DF931F92CDB7DEB7898375
S11300E084E690E0FC0110828CE790E02CE730E09D
S11300F0F9012081207FFC0120838CE790E02CE72C
S113010030E0F90130812981232BFC0120838AE727
S113011090E02AE730E0F90120812064FC0120838B
S113012000000F90DF91CF910895CF93DF93CDB767
S1130130DEB78AE790E0FC018081882F90E080712F
S1130140992721E0892B09F420E0822FDF91CF91B8
S11301500895CF93DF93CDB7DEB788E790E0FC0135
S11301608081282F30E089E790E0FC018081882F8E
S113017090E0982F8827822B932BDF91CF910895BD
S1130180CF93DF9300D01F92CDB7DEB78B838B81E3
S1130190A1DF0000CADF982F81E089278823D1F7E7
S11301A0D8DF9A8389838AE790E02AE730E0F9016F
S11301B020812061FC01208389819A810F900F9016
S11301C00F90DF91CF910895CF93DF9300D0CDB7F7
S11301D0DEB789836A838A81882F90E08130910514
S11301E099F082309105D9F0892B09F02FC084E26F
S11301F090E024E230E0F9012081322F298120951A
S11302002323FC01208322C084E290E024E230E036
S1130210F90130812981232BFC01208317C084E25A
S113022090E024E230E0F9012081322F29812095E9
S11302302323FC01208385E290E025E230E0F901EC
S113024030812981232BFC012083000000000F90C2
S11302500F90DF91CF910895CF93DF9300D0CDB766
S1130260DEB789836A838A81813051F587E290E021
S113027027E230E0F9012081622F2981422F50E0EA
S113028021E030E002C0220F331F4A95E2F72095A7
S11302902623FC01208388E290E028E230E0F90183
S11302A02081622F2981422F50E021E030E002C0FA
S11302B0220F331F4A95E2F7262BFC01208318C036
S11302C08A818823A9F488E290E028E230E0F901E9
S11302D02081622F2981422F50E021E030E002C0CA
S11302E0220F331F4A95E2F720952623FC01208331
S11302F000000F900F90DF91CF910895CF93DF937B
S113030000D0CDB7DEB789836A838A81882F90E0D5
S11303108130910599F082309105D9F0892B09F04B
S11303202FC087E290E027E230E0F9012081322FEC
S1130330298120952323FC01208322C087E290E0B9
S113034027E230E0F90130812981232BFC0120834D
S113035017C087E290E027E230E0F9012081322FD4
S1130360298120952323FC01208388E290E028E260
S113037030E0F90130812981232BFC012083000026
S113038000000F900F90DF91CF910895CF93DF93EA
S113039000D0CDB7DEB789836A838A81813051F575
S11303A08AE290E02AE230E0F9012081622F29817B
S11303B0422F50E021E030E002C0220F331F4A9563
S11303C0E2F720952623FC0120838BE290E02BE2C8
S11303D030E0F9012081622F2981422F50E021E091
S11303E030E002C0220F331F4A95E2F7262BFC01AE
S11303F0208318C08A818823A9F48BE290E02BE241
S113040030E0F9012081622F2981422F50E021E060
S113041030E002C0220F331F4A95E2F720952623CD
S1130420FC01208300000F900F90DF91CF9108957D
S1130430CF93DF9300D0CDB7DEB789836A838A81F7
S1130440882F90E08130910599F082309105D9F0A0
S1130450892B09F02FC08AE290E02AE230E0F9010A
S11304602081322F298120952323FC01208322C05F
S11304708AE290E02AE230E0F90130812981232BDD
S1130480FC01208317C08AE290E02AE230E0F901FF
S11304902081322F298120952323FC0120838BE2A4
S11304A090E02BE230E0F90130812981232BFC011B
S11304B02083000000000F900F90DF91CF910895EA
S11304C0CF93DF9300D0CDB7DEB789836A838A8167
S11304D0882F90E081309105E1F08230910571F12F
S11304E0892B09F055C08AE290E02AE230E0F90154
S11304F02081622F2981422F50E021E030E002C0A8
S1130500220F331F4A95E2F720952623FC0120830E
S11305103FC08AE290E02AE230E0F9012081622FB4
S11305202981422F50E021E030E002C0220F331F26
S11305304A95E2F7262BFC0120832AC08AE290E048
S11305402AE230E0F9012081622F2981422F50E014
S113055021E030E002C0220F331F4A95E2F72095D4
S11305602623FC0120838BE290E02BE230E0F901AA
S11305702081622F2981422F50E021E030E002C027
S1130580220F331F4A95E2F7262BFC01208300003B
S113059000000F900F90DF91CF910895CF93DF93D8
S11305A000D0CDB7DEB789836A838A818823A9F016
S11305B08BE290E02BE230E0F9012081622F298167
S11305C0422F50E021E030E002C0220F331F4A9551
S11305D0E2F7262BFC01208315C08BE290E02BE28E
S11305E030E0F9012081622F2981422F50E021E07F
S11305F030E002C0220F331F4A95E2F720952623EC
S1130600FC01208300000F900F90DF91CF9108959B
S1130610CF93DF931F92CDB7DEB78983698185E0DD
S11306201BDE00000F90DF91CF910895CF93DF93ED
S11306301F92CDB7DEB78983698180E0A7DE000011
S11306400F90DF91CF910895CF93DF931F92CDB791
S1130650DEB78983698180E033DF00000F90DF918A
S1130660CF910895CF93DF931F92CDB7DEB78983DF
S1130670698181E025DF00000F90DF91CF9108951B
S1130680CF93DF931F92CDB7DEB78983698181E071
S113069085DF00000F90DF91CF910895CF93DF9312
S11306A0CDB7DEB740E060E881E690E04AD083E56C
S11306B090E0FC01108285E590E0FC01108280E06E
S11306C0DF91CF910895CF93DF93CDB7DEB784E662
S11306D090E02BEEFC01208362E08FEF75DD62E099
S11306E08FE70CDE62E08FEFA3DE0000DF91CF9195
S11306F00895CF93DF93CDB7DEB7CEDC0000DF9152
S1130700CF910895CF93DF93CDB7DEB780E09CDF20
S113071080E08CDF81E0A6DF80E0B2DF19D000004A
S1130720DF91CF910895CF93DF93CDB7DEB7CBDFC1
S113073080E06EDFB3DFDDDFE5DF0000DF91CF9126
S113074008952FB7F894FC01608340832FBF089568
S1130750CF93DF93CDB7DEB784E690E024E630E0B4
S1130760F90120812D7FFC01208385EC90E0FC01C0
S1130770108284EC90E023E3FC01208380EC90E081
S1130780FC01108281EC90E028E9FC01208380E0E8
S10D0790DF91CF910895F894FFCF94
S9030000FC
